:100000000C9434000C9451000C9451000C94510049
:100010000C9451000C9451000C9451000C9451001C
:100020000C9451000C9451000C9451000C9451000C
:100030000C9451000C9451000C9451000C945100FC
:100040000C9451000C9451000C9451000C945100EC
:100050000C9451000C9451000C9451000C945100DC
:100060000C9451000C94510011241FBECFEFD8E026
:10007000DEBFCDBF11E0A0E0B1E0EAE0F3E002C0F6
:1000800005900D92A231B107D9F721E0A2E1B1E0CC
:1000900001C01D92A631B207E1F70E9403010C9442
:1000A00083010C9400001AB885E08BB90895EAE743
:1000B000F0E0808187608083ACE7B0E08C91806461
:1000C0008C938C9180628C93808180688083808106
:1000D00080648083808180628083089580FF02C075
:1000E000299A01C0299881FF02C02A9A01C02A9842
:1000F00082FF02C02B9A01C02B9883FF02C02C9A6A
:1001000008952C980895CF93C82F289A82958F70C0
:100110000E946E002898289A8C2F0E946E002898C2
:1001200087EC90E00197F1F700C00000CF910895AF
:100130005F980C9483005F9A0C948300CF93DF93B5
:10014000EC018991882319F00E949B00FACFDF917E
:10015000CF91089590E4699F800D112480680C94DC
:10016000980081E00E9498008FE39FE10197F1F7EA
:1001700000C00000089582E00E9498008FE39FE194
:100180000197F1F700C000000895CF93219A229AB9
:10019000239A249A209A579A8FE59AEE0197F1F7BD
:1001A00000C000005F982898C3E0289A83E00E946E
:1001B0006E0028988FE19EE40197F1F700C00000DF
:1001C000C15099F7289A82E00E946E0028988FE922
:1001D0009FE00197F1F700C0000088E20E949800BC
:1001E00088E00E94980081E00E9498008FE39FE1E0
:1001F0000197F1F700C0000086E00E9498008CE0B3
:10020000CF910C949800CF93DF9300D01F92CDB77D
:10021000DEB70E94C5000E94570004E610E08091FE
:10022000780090917900B8010E943A01CB014AE030
:10023000BE016F5F7F4F0E944E0160E080E00E9430
:10024000AA00CE0101960E949E00489908C061E074
:1002500080E00E94AA0080E091E00E949E004A99FE
:10026000DECF61E080E00E94AA0089E091E00E9478
:100270009E00D5CFAA1BBB1B51E107C0AA1FBB1F05
:10028000A617B70710F0A61BB70B881F991F5A9522
:10029000A9F780959095BC01CD010895BB274A3000
:1002A00031F4992322F4BDE2909581959F4F0C94EF
:1002B0005A01BB27FB015527AA27880F991FAA1FA0
:1002C000A41710F0A41B83955051B9F7A05DAA3371
:1002D00008F0A95DA193009779F7B111B19311923C
:1002E000CB010C947301DC01FC01672F7191772322
:1002F000E1F7329704C07C916D9370836291AE17E1
:0A030000BF07C8F30895F894FFCF7B
:10030A00627574746F6E203100627574746F6E203A
:02031A003200AF
:00000001FF
