:100000000C942A000C9447000C9447000C94470071
:100010000C9447000C9447000C9447000C94490042
:100020000C9447000C9447000C9447000C94470034
:100030000C9447000C9447000C9447000C94470024
:100040000C9447000C9447000C9447000C94470014
:100050000C94470011241FBECFE5D8E0DEBFCDBF12
:1000600010E0A0E6B0E0EAE1FBE002C005900D92EE
:10007000A838B107D9F721E0A8E8B0E001C01D9287
:10008000A234B207E1F70E9491030C948B050C9403
:1000900000001F920F920FB60F9211242F933F93DF
:1000A0004F935F936F937F938F939F93AF93BF9380
:1000B000EF93FF930E94D50140E050E061E084E1BE
:1000C0000E94FE0041E050E061E085E10E94FE00F8
:1000D00042E050E061E086E10E94FE0043E050E033
:1000E00061E087E10E94FE0060E070E080E10E9434
:1000F0003D0161E070E081E10E943D0162E070E05D
:1001000082E10E943D0163E070E083E10E943D01D5
:1001100064E070E088E10E943D0165E070E089E103
:100120000E943D0166E070E08AE10E943D0167E0C7
:1001300070E089E10E943D01FF91EF91BF91AF9185
:100140009F918F917F916F915F914F913F912F91EF
:100150000F900FBE0F901F90189580E884BF84BF4A
:100160008FEF81BB84BB88B38F6088BB0895EF920B
:10017000FF921F93CF93DF93182F7B01EA0180E951
:100180000E945D03CE0DDF1D812F2CE0C29F800DEC
:1001900011240E945D0380E4DF91CF911F91FF90B5
:1001A000EF900C945D03EF92FF921F93CF93DF9338
:1001B000182F7B01EA0180E80E945D03CE0DDF1D50
:1001C000812F2CE0C29F800D11240E945D0380E4EA
:1001D000DF91CF911F91FF90EF900C945D03CF932F
:1001E000DF93D82FC62F80EB0E945D038D2F0E94D6
:1001F0005D038C2FDF91CF910C945D031F93CF9300
:10020000DF93182FEA0166E370E0842F0E94E40276
:10021000892B11F5FE01EE0FFF1FDF01A053BF4F29
:100220008D919C911197892BB9F481E090E08D9389
:100230009C93E853FF4F20813181232B21F01182C1
:1002400010826CE303C09183808366E4812FDF9189
:10025000CF911F910C94EF0066E370E08C2F0E9409
:10026000E402892B31F0CC0FDD1FC053DF4F198220
:100270001882DF91CF911F9108954F925F926F92F4
:100280007F92BF92CF92DF92EF92FF920F931F93D4
:10029000CF93DF93B82E7B016B01CC0CDD1CF601F4
:1002A000E855FF4FD601A854BF4F8D919C91918383
:1002B000808300E110E0C0E0D0E08E2D0E948E022D
:1002C000C80FD91F01501109C1F7CE0124E096953E
:1002D00087952A95E1F7F601E854FF4F91838083D3
:1002E000BE01660F672F661F770B7195F601E85503
:1002F000FF4F0081118143E0169507954A95E1F77C
:10030000601709F444C0E601C856DF4FE880F98061
:10031000F601E857FF4FF182E0827727072E000CA5
:10032000880B990B0E943E042AE939E949E15FE311
:100330000E94CA042B013C01B8017727072E000C4C
:10034000880B990B0E943E042CEC3CEC4CEC5EE3D9
:100350000E94CA049B01AC01C301B2010E94A10327
:100360000E940D0479836883E616F70681F08B2DD1
:10037000DF91CF911F910F91FF90EF90DF90CF9081
:10038000BF907F906F905F904F900C94EF00DF9143
:10039000CF911F910F91FF90EF90DF90CF90BF9082
:1003A0007F906F905F904F9008956F927F928F92A1
:1003B0009F92AF92BF92CF92DF92EF92FF920F93F4
:1003C0001F93CF93DF930AE610E09AED692E90E039
:1003D000792EC0E0D0E0CC24C394D12CC730D10515
:1003E00064F422B3C601F801008002C0880F991F8F
:1003F0000A94E2F7822B82BB0BC025B3C601F80139
:10040000008002C0880F991F0A94E2F7822B85BBF7
:1004100082E6A82E80E0B82E7301812C912C86B341
:10042000F5012081F2E0AF0EB11C90E0022E02C077
:10043000959587950A94E2F780FF10C0F7018081B7
:100440009181892B59F4D182C082409160005091F2
:100450006100B401CE010E94B70018C086B390E0DD
:1004600002C0959587952A95E2F780FD0FC0F701A8
:1004700080819181892B51F011821082409160001E
:1004800050916100B401CE010E94D300FFEF8F1A9A
:100490009F0A82E0E80EF11C94E08916910409F0AD
:1004A000BECFC730D10574F492B39601F801008035
:1004B00002C0220F331F0A94E2F7822F809589230E
:1004C00082BB0DC095B39601F801008002C0220FD7
:1004D000331F0A94E2F7822F8095892385BB2196EA
:1004E0000E5F1F4FF8E06F0E711CCD30D10509F083
:1004F00075CFDF91CF911F910F91FF90EF90DF901B
:10050000CF90BF90AF909F908F907F906F90089505
:1005100086B1876086B93E9A379A089597B1987FD9
:100520008770892B87B9369A3699FECF84B195B1F9
:100530000895CF93DF9300D000D0CDB7DEB71982F6
:100540001A821B821C82A0E0B0E049815A816B8133
:100550007C81481759076A077B0798F4EFE9FFE0A9
:100560003197F1F700C0000049815A816B817C818D
:100570004F5F5F4F6F4F7F4F49835A836B837C83FD
:10058000E4CF0F900F900F900F90DF91CF910895CF
:10059000AC019B0180E89EE3BA010E943705629F8F
:1005A000C001639F900D729F900D112401979BBD18
:1005B0008ABD8EB588608EBD89B7806189BF8EB5D2
:1005C00085608EBD78940895FB01208130E0A901FB
:1005D00002C0559547958A95E2F7CA01817099271F
:1005E00008950F931F93982FDB01FA018C91232B11
:1005F00049F021E030E0092E01C0220F0A94EAF709
:10060000282B09C021E030E0092E01C0220F0A94F6
:10061000EAF7209528232C93408121E030E0B901AE
:1006200002C0660F771F9A95E2F7CB01012B11F0FC
:10063000842B02C08095842380831F910F9108959D
:10064000FB012130310529F018F12230310549F044
:100650001FC0908101C0220F8A95EAF7292B2083C1
:100660000895DA012C9130E0082E02C035952795C7
:100670000A94E2F7408120FD0CC021E030E0D9016E
:1006800002C0AA0FBB1F8A95E2F7CD01842B0CC0D4
:10069000408121E030E0B90102C0660F771F8A95E2
:1006A000E2F7CB01809584238083089590BD89B9BA
:1006B00088E08AB98EE880BD08955D9BFECF8CB935
:1006C00008955F9BFECF8CB10895CF93DF935D9B20
:1006D000FECFEC018991882319F00E945D03FACFC7
:1006E000DF91CF910895CF93DF93CDB7DEB76097B9
:1006F0000FB6F894DEBF0FBECDBF4AE050E0BE019A
:100700006F5F7F4F0E944B05CE0101960E946503EB
:1007100060960FB6F894DEBF0FBECDBFDF91CF91CC
:1007200008950E94AD006AE070E080E094E00E94CD
:10073000C8028FE190E00E9456030E948802FFCF1A
:100740005058BB27AA270E94B8030C9490040E941B
:10075000820438F00E94890420F039F49F3F19F494
:1007600026F40C947F040EF4E095E7FB0C947904D6
:10077000E92F0E94A10458F3BA1762077307840790
:10078000950720F079F4A6F50C94C3040EF4E095D7
:100790000B2EBA2FA02D0B01B90190010C01CA013B
:1007A000A0011124FF27591B99F0593F50F4503EE6
:1007B00068F11A16F040A22F232F342F4427585FD8
:1007C000F3CF469537952795A795F0405395C9F7F0
:1007D0007EF41F16BA0B620B730B840BBAF09150A8
:1007E000A1F0FF0FBB1F661F771F881FC2F70EC047
:1007F000BA0F621F731F841F48F48795779567951A
:10080000B795F7959E3F08F0B0CF9395880F08F005
:100810009927EE0F9795879508950E94A90488F06F
:100820009F5798F0B92F9927B751B0F0E1F0660FB4
:10083000771F881F991F1AF0BA95C9F714C0B130F5
:1008400091F00E94C304B1E008950C94C304672F93
:10085000782F8827B85F39F0B93FCCF38695779524
:100860006795B395D9F73EF490958095709561950D
:100870007F4F8F4F9F4F0895E89409C097FB3EF438
:1008800090958095709561957F4F8F4F9F4F9923DD
:10089000A9F0F92F96E9BB279395F695879577955B
:1008A0006795B795F111F8CFFAF4BB0F11F460FF1B
:1008B0001BC06F5F7F4F8F4F9F4F16C0882311F073
:1008C00096E911C0772321F09EE8872F762F05C087
:1008D000662371F096E8862F70E060E02AF09A9522
:1008E000660F771F881FDAF7880F9695879597F917
:1008F000089597F99F6780E870E060E008959FEFA2
:1009000080EC089500240A941616170618060906A6
:10091000089500240A941216130614060506089575
:10092000092E0394000C11F4882352F0BB0F40F4FD
:10093000BF2B11F460FF04C06F5F7F4F8F4F9F4F3D
:10094000089557FD9058440F551F59F05F3F71F0BF
:100950004795880F97FB991F61F09F3F79F0879526
:100960000895121613061406551FF2CF4695F1DFAF
:1009700008C0161617061806991FF1CF869571053F
:10098000610508940895E894BB2766277727CB0173
:1009900097F908950E94DD040C9490040E9482044B
:1009A00038F00E94890420F0952311F00C9479040A
:1009B0000C947F0411240C94C4040E94A10470F3CD
:1009C000959FC1F3950F50E0551F629FF001729FF4
:1009D000BB27F00DB11D639FAA27F00DB11DAA1F03
:1009E000649F6627B00DA11D661F829F2227B00D50
:1009F000A11D621F739FB00DA11D621F839FA00DDB
:100A0000611D221F749F3327A00D611D231F849F2A
:100A1000600D211D822F762F6A2F11249F57504081
:100A20009AF0F1F088234AF0EE0FFF1FBB1F661FFC
:100A3000771F881F91505040A9F79E3F510580F0C5
:100A40000C9479040C94C4045F3FE4F3983ED4F30F
:100A5000869577956795B795F795E7959F5FC1F769
:100A6000FE2B880F911D9695879597F90895AA1BDF
:100A7000BB1B51E107C0AA1FBB1FA617B70710F089
:100A8000A61BB70B881F991F5A95A9F780959095BB
:100A9000BC01CD0108954532510520F4423010F0DB
:100AA0000C945605FB011082CB010895BB274A30F8
:100AB00031F4992322F4BDE2909581959F4F0C94D7
:100AC0006205BB27FB015527AA27880F991FAA1F7C
:100AD000A41710F0A41B83955051B9F7A05DAA3359
:100AE00008F0A95DA193009779F7B111B193119224
:100AF000CB010C947B05DC01FC01672F71917723FE
:100B0000E1F7329704C07C916D9370836291AE17C8
:0A0B1000BF07C8F30895F894FFCF63
:100B1A0003000400050006000700000002000300AD
:100B2A000400050006000700020003000400050097
:080B3A00060007009A99193F1B
:00000001FF
