:100000000C942A000C9447000C9447000C94470071
:100010000C9447000C9447000C9447000C94C400C7
:100020000C9447000C9447000C9447000C94470034
:100030000C9447000C9447000C9447000C94470024
:100040000C9447000C9447000C9447000C94470014
:100050000C94470011241FBECFE5D8E0DEBFCDBF12
:1000600010E0A0E6B0E0E8E8F2E002C005900D92F2
:10007000A439B107D9F721E0A4E9B0E001C01D928D
:10008000A230B207E1F70E94F7000C9442010C94F1
:1000900000008BED95E09BBD8ABD8EB588608EBD5E
:1000A00089B7806189BF8EB585608EBD78940895CB
:1000B00090BD89B988E08AB98EE880BD08955D9BBE
:1000C000FECF8CB908955F9BFECF8CB10895CF937E
:1000D000DF935D9BFECFEC018991882319F00E948C
:1000E0005F00FACFDF91CF910895CF93DF93CDB723
:1000F000DEB760970FB6F894DEBF0FBECDBF4AE003
:1001000050E0BE016F5F7F4F0E940201CE01019659
:100110000E94670060960FB6F894DEBF0FBECDBF99
:10012000DF91CF91089586B1876086B93E9A379A5C
:10013000089597B1987F8770892B87B9369A369939
:10014000FECF84B195B1089580E884BF84BF8FEF5E
:1001500081BB84BB08950F931F93CF93DF938C01D2
:10016000EB0182E890E00E946700C8010E947500E0
:1001700088E890E00E946700CE01DF91CF911F9147
:100180000F910C94750008951F920F920FB60F9265
:1001900011242F933F934F935F936F937F938F938C
:1001A0009F93AF93BF93EF93FF9381E00E949900D9
:1001B00090939700809396008DE890E00E946700EE
:1001C00080919600909197000E947500FF91EF91A9
:1001D000BF91AF919F918F917F916F915F914F915F
:1001E0003F912F910F900FBE0F901F90189587E6AB
:1001F00090E00E9458000E94A4000E9493000E9478
:100200004900FFCF4532510520F4423010F00C94E4
:100210000D01FB011082CB010895BB274A3031F458
:10022000992322F4BDE2909581959F4F0C9419017A
:10023000BB27FB015527AA27880F991FAA1FA417C0
:1002400010F0A41B83955051B9F7A05DAA3308F0B4
:10025000A95DA193009779F7B111B1931192CB01E8
:100260000C943201DC01FC01672F71917723E1F7D7
:10027000329704C07C916D9370836291AE17BF0773
:08028000C8F30895F894FFCFC4
:100288000400050006000700000002000300040047
:100298000500060007000200030004000500060030
:1002A80007000A6B65793A000A6F6374000A4144D3
:0402B80043313A0094
:00000001FF
