:100000000C942A000C9447000C9447000C94470071
:100010000C9447000C9447000C9447000C94090181
:100020000C9447000C9447000C9447000C94470034
:100030000C9447000C9447000C9447000C94470024
:100040000C9447000C9447000C9447000C94470014
:100050000C94470011241FBECFE5D8E0DEBFCDBF12
:1000600010E0A0E6B0E0E2E3F4E002C005900D92FB
:10007000A238B107D9F721E0A2E8B0E001C01D9293
:10008000A431B207E1F70E943F010C9417020C94CF
:10009000000085E990E09BBD8ABD8EB588608EBD6D
:1000A00089B7806189BF8EB585608EBD78940895CB
:1000B00090BD89B988E08AB98EE880BD08955D9BBE
:1000C000FECF8CB90895CF93DF935D9BFECFEC01FB
:1000D0008991882319F00E945F00FACFDF91CF91B8
:1000E0000895CF93DF93CDB7DEB760970FB6F8943E
:1000F000DEBF0FBECDBF4AE050E0BE016F5F7F4F55
:100100000E94D701CE0101960E94630060960FB64F
:10011000F894DEBF0FBECDBFDF91CF91089586B1B9
:10012000876086B93E9A379A089597B1987F87700D
:10013000892B87B9369A3699FECF84B195B1089547
:1001400080E884BF84BF8FEF81BB84BB0895CF93C9
:10015000DF93C82FD62F80E90E945F008C2F9CE090
:10016000D99F800D11240E945F0080E4DF91CF9120
:100170000C945F00CF93DF93C82FD62F80E80E94A6
:100180005F008C2F9CE0D99F800D11240E945F009E
:1001900080E4DF91CF910C945F00FF920F931F9347
:1001A000CF93DF93F82EEB01CC0FDD1F8E010457A8
:1001B0001F4FC456DF4F88819981F8019183808356
:1001C000862F0E94950099838883EC0193E0D59552
:1001D000C7959A95E1F7F8018081918123E0959583
:1001E00087952A95E1F7C81771F080EB0E945F00B0
:1001F0008F2D0E945F008C2FDF91CF911F910F9167
:10020000FF900C945F00DF91CF911F910F91FF90B1
:1002100008951F920F920FB60F9211242F933F93C0
:100220004F935F936F937F938F939F93AF93BF93FE
:10023000EF93FF9360E070E087E00E94CD0064E000
:1002400070E087E00E94CD0066E070E087E00E94E9
:10025000CD0067E070E087E00E94CD00FF91EF9154
:10026000BF91AF919F918F917F916F915F914F91CE
:100270003F912F910F900FBE0F901F9018958FE117
:1002800090E00E9458000E94A0000E948F000E94EF
:100290004900CC24C394D12C08E610E09CEA692ED6
:1002A00090E0792EC0E0D0E0C730D10564F422B3ED
:1002B000C601F801008002C0880F991F0A94E2F776
:1002C000822B82BB0BC025B3C601F801008002C09F
:1002D000880F991F0A94E2F7822B85BB80E6A82E2F
:1002E00080E0B82E7301812C912C86B3F50120811A
:1002F000F2E0AF0EB11C90E0022E02C095958795FA
:100300000A94E2F780FF0CC0F70180819181892B6C
:1003100039F4D182C082B401CE010E94A70014C07A
:1003200086B390E002C0959587952A95E2F780FD07
:100330000BC0F70180819181892B31F011821082ED
:10034000B401CE010E94BA00FFEF8F1A9F0A82E02B
:10035000E80EF11C94E08916910439F6C730D105F6
:1003600074F492B39601F801008002C0220F331F8B
:100370000A94E2F7822F8095892382BB0DC095B342
:100380009601F801008002C0220F331F0A94E2F7A1
:10039000822F8095892385BB21960E5F1F4FF8E041
:1003A0006F0E711CCD30D10509F07ECF75CF45326F
:1003B000510520F4423010F00C94E201FB01108250
:1003C000CB010895BB274A3031F4992322F4BDE2D2
:1003D000909581959F4F0C94EE01BB27FB0155270B
:1003E000AA27880F991FAA1FA41710F0A41B839592
:1003F0005051B9F7A05DAA3308F0A95DA193009709
:1004000079F7B111B1931192CB010C940702DC0181
:10041000FC01672F71917723E1F7329704C07C913B
:100420006D9370836291AE17BF07C8F30895F89477
:02043000FFCFFC
:10043200040005000600070000000200030004009B
:100442000500060007000200030004000500060084
:020452000700A1
:00000001FF
