:100000000C942A000C9447000C9447000C94470071
:100010000C9447000C9447000C9447000C94470044
:100020000C9447000C9447000C9447000C94470034
:100030000C9447000C9447000C9447000C94470024
:100040000C9447000C9447000C9447000C94470014
:100050000C94470011241FBECFE5D8E0DEBFCDBF12
:1000600010E0A0E6B0E0ECEEF2E002C005900D92E8
:10007000AE38B107D9F720E0AEE8B0E001C01D927C
:10008000A63FB207E1F70E94A4000C9474010C94FF
:10009000000080E884BF84BF8FEF81BB84BB0895DC
:1000A00090BD89B988E08AB98EE880BD08955D9BCE
:1000B000FECF8CB908955F9BFECF8CB10895CF938E
:1000C000DF935D9BFECFEC018991882319F00E949C
:1000D0005700FACFDF91CF910895CF93DF93CDB73B
:1000E000DEB760970FB6F894DEBF0FBECDBF4AE013
:1000F00050E0BE016F5F7F4F0E943401CE01019638
:100100000E945F0060960FB6F894DEBF0FBECDBFB1
:10011000DF91CF9108950F931F93CF93DF938C01BD
:10012000EB0182E890E00E945F00C8010E946D0030
:1001300088E890E00E945F00CE01DF91CF911F918F
:100140000F910C946D00089587E690E00E94500096
:100150000E944900CC24C394D12C08E610E09EE80C
:10016000692E90E0792EC0E0D0E0C730D10564F46C
:1001700022B3C601F801008002C0880F991F0A94BB
:10018000E2F7822B82BB0BC025B3C601F8010080C9
:1001900002C0880F991F0A94E2F7822B85BB80E684
:1001A000882E80E0982E7301A12CB12C86B3F40127
:1001B0002081F2E08F0E911C90E0022E02C09595F6
:1001C00087950A94E2F780FF0CC0F7018081918146
:1001D000892B39F4D182C082B501CE010E948B00F7
:1001E00010C086B390E002C0959587952A95E2F7F6
:1001F00080FD07C0F70180819181892B11F0118268
:100200001082FFEFAF1ABF0A82E0E80EF11C94E003
:10021000A916B10459F6C730D10574F492B396010A
:10022000F801008002C0220F331F0A94E2F7822FE8
:100230008095892382BB0DC095B39601F80100809B
:1002400002C0220F331F0A94E2F7822F8095892380
:1002500085BB21960E5F1F4FF8E06F0E711CCD30ED
:10026000D10509F082CF79CF4532510520F44230D3
:1002700010F00C943F01FB011082CB010895BB27C5
:100280004A3031F4992322F4BDE2909581959F4F35
:100290000C944B01BB27FB015527AA27880F991FF8
:1002A000AA1FA41710F0A41B83955051B9F7A05DA5
:1002B000AA3308F0A95DA193009779F7B111B19322
:1002C0001192CB010C946401DC01FC01672F719148
:1002D0007723E1F7329704C07C916D93708362912C
:0C02E000AE17BF07C8F30895F894FFCFD5
:1002EC0004000500060007000000020003000400E3
:1002FC0005000600070002000300040005000600CC
:0E030C0007000A6B65793A000A6F63740000FF
:00000001FF
