:100000000C942A000C9447000C9447000C94470071
:100010000C9447000C9447000C9447000C94E201A8
:100020000C9447000C9447000C9447000C94470034
:100030000C9447000C9447000C9447000C94470024
:100040000C9447000C9447000C9447000C94470014
:100050000C94470011241FBECFE5D8E0DEBFCDBF12
:1000600010E0A0E6B0E0E0EBF9E002C005900D92F0
:10007000A838B107D9F721E0A8E8B0E001C01D9287
:10008000A234B207E1F70E94ED020C94D6040C945E
:10009000000085E990E09BBD8ABD8EB588608EBD6D
:1000A00089B7806189BF8EB585608EBD78940895CB
:1000B00090BD89B988E08AB98EE880BD08955D9BBE
:1000C000FECF8CB90895CF93DF935D9BFECFEC01FB
:1000D0008991882319F00E945F00FACFDF91CF91B8
:1000E0000895CF93DF93CDB7DEB760970FB6F8943E
:1000F000DEBF0FBECDBF4AE050E0BE016F5F7F4F55
:100100000E949604CE0101960E94630060960FB68D
:10011000F894DEBF0FBECDBFDF91CF91089586B1B9
:10012000876086B93E9A379A089597B1987F87700D
:10013000892B87B9369A3699FECF84B195B1089547
:1001400080E884BF84BF8FEF81BB84BB88B38F609E
:1001500088BB08950F931F93CF93C82F8B0180E91D
:100160000E945F006091600070916100600F711FDC
:100170008C2F9CE0699F800D11240E945F0080E419
:10018000CF911F910F910C945F000F931F93CF930A
:10019000C82F8B0180E80E945F0060916000709121
:1001A0006100600F711F8C2F9CE0699F800D1124EE
:1001B0000E945F0080E4CF911F910F910C945F002B
:1001C00002C0959587956A95E2F78170992721E09D
:1001D00082270895EF92FF921F93CF93DF9326B368
:1001E00030E0042E02C0359527950A94E2F720FDF1
:1001F0000AC0EA01CC0FDD1FFE01E053FF4F208152
:100200003181232B91F086B390E0042E02C09595A6
:1002100087950A94E2F780FF2CC0440F551FFA011E
:10022000E053FF4F1182108224C0182FEE24E39474
:10023000F12CF182E08280EB0E945F00FE01E85326
:10024000FF4F80819181892B39F011821082812F9B
:100250000E945F008CE306C0F182E082812F0E9441
:100260005F0086E4DF91CF911F91FF90EF900C9497
:100270005F00DF91CF911F91FF90EF9008954F9213
:100280005F926F927F92BF92CF92DF92EF92FF9236
:100290000F931F93CF93DF93B82E7B016B01CC0C90
:1002A000DD1CF601E855FF4FD601A854BF4F8D91D4
:1002B0009C919183808300E110E0C0E0D0E08E2D1E
:1002C0000E949500C80FD91F01501109C1F7BE0146
:1002D000D7FF02C0615F7F4FCB0124E095958795E2
:1002E0002A95E1F7F601E854FF4F91838083660F6A
:1002F000672F661F770BF601E855FF4FC081D1814C
:1003000043E0D595C7954A95E1F76C1709F44CC0C1
:10031000860108561F4FF801E080F180F601E8578A
:10032000FF4FF182E0827727072E000C880B990B94
:100330000E949D032AE939E949E15FE30E9429040B
:100340002B013C01DD27BE01DD0F880B990B0E94BC
:100350009D032CEC3CEC4CEC5EE30E9429049B01D9
:10036000AC01C301B2010E94F9020E946503F801C9
:1003700071836083E616F706B9F080EB0E945F0098
:100380008B2D0E945F00F8018081DF91CF911F913A
:100390000F91FF90EF90DF90CF90BF907F906F9084
:1003A0005F904F900C945F00DF91CF911F910F9160
:1003B000FF90EF90DF90CF90BF907F906F905F9015
:1003C0004F9008951F920F920FB60F9211246F92C3
:1003D0007F928F929F92AF92BF92CF92DF92EF92D5
:1003E000FF920F931F932F933F934F935F936F93BE
:1003F0007F938F939F93AF93BF93CF93DF93EF93AD
:10040000FF9340E050E061E084E10E94EA0041E0B7
:1004100050E061E085E10E94EA0042E050E061E0E6
:1004200086E10E94EA0043E050E061E087E10E943B
:10043000EA0060E070E088E10E943F0161E070E066
:1004400089E10E943F0162E070E080E10E943F018B
:1004500063E070E081E10E943F0164E070E082E1CE
:100460000E943F0165E070E083E10E943F0166E089
:1004700070E08AE10E943F0167E070E089E10E943C
:100480003F010AE610E09AED692E90E0792EC0E077
:10049000D0E0CC24C394D12CC730D10564F422B36E
:1004A000C601F801008002C0880F991F0A94E2F784
:1004B000822B82BB0BC025B3C601F801008002C0AD
:1004C000880F991F0A94E2F7822B85BB82E6A82E3B
:1004D00080E0B82E7301812C912C86B3F501208128
:1004E000F2E0AF0EB11C90E0022E02C09595879508
:1004F0000A94E2F780FF0CC0F70180819181892B7B
:1005000039F4D182C082B401CE010E94AA0014C085
:1005100086B390E002C0959587952A95E2F780FD15
:100520000BC0F70180819181892B31F011821082FB
:10053000B401CE010E94C500FFEF8F1A9F0A82E02E
:10054000E80EF11C94E08916910439F6C730D10504
:1005500074F492B39601F801008002C0220F331F99
:100560000A94E2F7822F8095892382BB0DC095B350
:100570009601F801008002C0220F331F0A94E2F7AF
:10058000822F8095892385BB21960E5F1F4FF8E04F
:100590006F0E711CCD30D10509F07ECFFF91EF9128
:1005A000DF91CF91BF91AF919F918F917F916F918B
:1005B0005F914F913F912F911F910F91FF90EF907D
:1005C000DF90CF90BF90AF909F908F907F906F9073
:1005D0000F900FBE0F901F9018958FE190E00E9432
:1005E00058000E94A0000E948F000E944900FFCF87
:1005F0005058BB27AA270E9410030C94EF030E94B7
:10060000E10338F00E94E80320F039F49F3F19F429
:1006100026F40C94DE030EF4E095E7FB0C94D8036B
:10062000E92F0E94000458F3BA1762077307840782
:10063000950720F079F4A6F50C9422040EF4E095C9
:100640000B2EBA2FA02D0B01B90190010C01CA018C
:10065000A0011124FF27591B99F0593F50F4503E37
:1006600068F11A16F040A22F232F342F4427585F29
:10067000F3CF469537952795A795F0405395C9F741
:100680007EF41F16BA0B620B730B840BBAF09150F9
:10069000A1F0FF0FBB1F661F771F881FC2F70EC098
:1006A000BA0F621F731F841F48F48795779567956B
:1006B000B795F7959E3F08F0B0CF9395880F08F057
:1006C0009927EE0F9795879508950E946C0368947B
:1006D000B1110C94230408950E94080488F09F57D8
:1006E00098F0B92F9927B751B0F0E1F0660F771F56
:1006F000881F991F1AF0BA95C9F714C0B13091F04C
:100700000E942204B1E008950C942204672F782FF0
:100710008827B85F39F0B93FCCF386957795679510
:10072000B395D9F73EF490958095709561957F4F7C
:100730008F4F9F4F0895E89409C097FB3EF4909522
:100740008095709561957F4F8F4F9F4F9923A9F0AA
:10075000F92F96E9BB279395F69587957795679539
:10076000B795F111F8CFFAF4BB0F11F460FF1BC07D
:100770006F5F7F4F8F4F9F4F16C0882311F096E910
:1007800011C0772321F09EE8872F762F05C06623BE
:1007900071F096E8862F70E060E02AF09A95660F77
:1007A000771F881FDAF7880F9695879597F9089530
:1007B00097F99F6780E870E060E008959FEF80EC14
:1007C000089500240A9416161706180609060895B7
:1007D00000240A9412161306140605060895092E1D
:1007E0000394000C11F4882352F0BB0F40F4BF2B8C
:1007F00011F460FF04C06F5F7F4F8F4F9F4F0895CC
:1008000057FD9058440F551F59F05F3F71F04795C1
:10081000880F97FB991F61F09F3F79F087950895A6
:10082000121613061406551FF2CF4695F1DF08C0C5
:10083000161617061806991FF1CF869571056105E2
:1008400008940895E894BB2766277727CB0197F98A
:1008500008950E943C040C94EF030E94E10338F0D9
:100860000E94E80320F0952311F00C94D8030C9417
:10087000DE0311240C9423040E94000470F3959F5E
:10088000C1F3950F50E0551F629FF001729FBB2787
:10089000F00DB11D639FAA27F00DB11DAA1F649F23
:1008A0006627B00DA11D661F829F2227B00DA11DD6
:1008B000621F739FB00DA11D621F839FA00D611D5C
:1008C000221F749F3327A00D611D231F849F600D7D
:1008D000211D822F762F6A2F11249F5750409AF0A6
:1008E000F1F088234AF0EE0FFF1FBB1F661F771F32
:1008F000881F91505040A9F79E3F510580F00C94FD
:10090000D8030C9423045F3FE4F3983ED4F3869518
:1009100077956795B795F795E7959F5FC1F7FE2B9C
:10092000880F911D9695879597F908954532510541
:1009300020F4423010F00C94A104FB011082CB0192
:100940000895BB274A3031F4992322F4BDE29095F3
:1009500081959F4F0C94AD04BB27FB015527AA2717
:10096000880F991FAA1FA41710F0A41B839550513C
:10097000B9F7A05DAA3308F0A95DA193009779F7B4
:10098000B111B1931192CB010C94C604DC01FC01AE
:10099000672F71917723E1F7329704C07C916D93B3
:1009A00070836291AE17BF07C8F30895F894FFCF24
:1009B0000300040005000600070000000200030019
:1009C0000400050006000700020003000400050003
:0809D000060007009A99193F87
:00000001FF
