:100000000C942A000C9447000C9447000C94470071
:100010000C9447000C9447000C9447000C94D100BA
:100020000C9447000C9447000C9447000C94470034
:100030000C9447000C9447000C9447000C94470024
:100040000C9447000C9447000C9447000C94470014
:100050000C94470011241FBECFE5D8E0DEBFCDBF12
:1000600010E0A0E6B0E0EAE6F3E002C005900D92F1
:10007000A238B107D9F720E0A2E8B0E001C01D9294
:10008000A03FB207E1F70E94DB000C94B3010C948F
:1000900000008BED95E09BBD8ABD8EB588608EBD5E
:1000A00089B7806189BF8EB585608EBD78940895CB
:1000B00090BD89B988E08AB98EE880BD08955D9BBE
:1000C000FECF8CB908955F9BFECF8CB10895CF937E
:1000D000DF935D9BFECFEC018991882319F00E948C
:1000E0005F00FACFDF91CF910895CF93DF93CDB723
:1000F000DEB760970FB6F894DEBF0FBECDBF4AE003
:1001000050E0BE016F5F7F4F0E947301CE010196E8
:100110000E94670060960FB6F894DEBF0FBECDBF99
:10012000DF91CF91089586B1876086B93E9A379A5C
:10013000089597B1987F8770892B87B9369A369939
:10014000FECF84B195B1089580E884BF84BF8FEF5E
:1001500081BB84BB0895CF93DF93C82FD62F80E94E
:100160000E945F008C2F9CE0D99F800D11240E947B
:100170005F0080E4DF91CF910C945F00CF93DF9319
:10018000C82FD62F80E80E945F008C2F9CE0D99F5B
:10019000800D11240E945F0080E4DF91CF910C94C8
:1001A0005F001F920F920FB60F9211240F900FBE97
:1001B0000F901F9018958FE190E00E9458000E94C8
:1001C000A4000E9493000E944900CC24C394D12C27
:1001D00008E610E098E8692E90E0792EC0E0D0E0C3
:1001E000C730D10564F422B3C601F801008002C013
:1001F000880F991F0A94E2F7822B82BB0BC025B3AC
:10020000C601F801008002C0880F991F0A94E2F726
:10021000822B85BB80E6A82E80E0B82E7301812C4E
:10022000912C86B3F5012081F2E0AF0EB11C90E075
:10023000022E02C0959587950A94E2F780FF0CC0C4
:10024000F70180819181892B39F4D182C082B40178
:10025000CE010E94AB0014C086B390E002C0959519
:1002600087952A95E2F780FD0BC0F7018081918187
:10027000892B31F011821082B401CE010E94BE00A0
:10028000FFEF8F1A9F0A82E0E80EF11C94E08916B6
:10029000910439F6C730D10574F492B39601F80190
:1002A000008002C0220F331F0A94E2F7822F80954C
:1002B000892382BB0DC095B39601F801008002C06E
:1002C000220F331F0A94E2F7822F8095892385BB82
:1002D00021960E5F1F4FF8E06F0E711CCD30D105D7
:1002E00009F07ECF75CF4532510520F4423010F031
:1002F0000C947E01FB011082CB010895BB274A308C
:1003000031F4992322F4BDE2909581959F4F0C948E
:100310008A01BB27FB015527AA27880F991FAA1F0F
:10032000A41710F0A41B83955051B9F7A05DAA3310
:1003300008F0A95DA193009779F7B111B1931192DB
:10034000CB010C94A301DC01FC01672F7191772391
:10035000E1F7329704C07C916D9370836291AE1780
:0A036000BF07C8F30895F894FFCF1B
:10036A000400050006000700000002000300040064
:10037A00050006000700020003000400050006004D
:02038A0007006A
:00000001FF
