:100000000C942A000C9447000C9447000C94470071
:100010000C9447000C9447000C9447000C94C801C2
:100020000C9447000C9447000C9447000C94470034
:100030000C9447000C9447000C9447000C94470024
:100040000C9447000C9447000C9447000C94470014
:100050000C94470011241FBECFE5D8E0DEBFCDBF12
:1000600010E0A0E6B0E0ECE7F9E002C005900D92E8
:10007000A838B107D9F721E0A8E8B0E001C01D9287
:10008000AA33B207E1F70E94D3020C94BC040C948B
:10009000000085E990E09BBD8ABD8EB588608EBD6D
:1000A00089B7806189BF8EB585608EBD78940895CB
:1000B00090BD89B988E08AB98EE880BD08955D9BBE
:1000C000FECF8CB90895CF93DF935D9BFECFEC01FB
:1000D0008991882319F00E945F00FACFDF91CF91B8
:1000E0000895CF93DF93CDB7DEB760970FB6F8943E
:1000F000DEBF0FBECDBF4AE050E0BE016F5F7F4F55
:100100000E947C04CE0101960E94630060960FB6A7
:10011000F894DEBF0FBECDBFDF91CF91089586B1B9
:10012000876086B93E9A379A089597B1987F87700D
:10013000892B87B9369A3699FECF84B195B1089547
:1001400080E884BF84BF8FEF81BB84BB88B38F609E
:1001500088BB08950F931F93CF93C82F8B0180E91D
:100160000E945F006091600070916100600F711FDC
:100170008C2F9CE0699F800D11240E945F0080E419
:10018000CF911F910F910C945F000F931F93CF930A
:10019000C82F8B0180E80E945F0060916000709121
:1001A0006100600F711F8C2F9CE0699F800D1124EE
:1001B0000E945F0080E4CF911F910F910C945F002B
:1001C00002C0959587956A95E2F78170992721E09D
:1001D00082270895CF93DF9326B330E0042E02C028
:1001E000359527950A94E2F720FF12C086B390E078
:1001F000042E02C0959587950A94E2F780FF22C0ED
:10020000440F551FFA01E853FF4F118210821AC0A4
:10021000FA01EE0FFF1FE853FF4F20813181232B9E
:1002200029F7D62FC82F81E090E09183808380EB5F
:100230000E945F008C2F0E945F008D2FDF91CF9175
:100240000C945F00DF91CF9108954F925F926F926F
:100250007F92BF92CF92DF92EF92FF920F931F9304
:10026000CF93DF93B82E7B016B01CC0CDD1CF60124
:10027000E855FF4FD601A854BF4F8D919C919183B3
:10028000808300E110E0C0E0D0E08E2D0E94950058
:10029000C80FD91F01501109C1F7BE01D7FF02C015
:1002A000615F7F4FCB0124E0959587952A95E1F713
:1002B000F601E854FF4F91838083660F672F661F16
:1002C000770BF601E855FF4FC081D18143E0D5950A
:1002D000C7954A95E1F76C1709F44CC0860108569A
:1002E0001F4FF801E080F180F601E857FF4FF182DF
:1002F000E0827727072E000C880B990B0E9483035E
:100300002AE939E949E15FE30E940F042B013C012E
:10031000DD27BE01DD0F880B990B0E9483032CECB7
:100320003CEC4CEC5EE30E940F049B01AC01C3016A
:10033000B2010E94DF020E944B03F80171836083C7
:10034000E616F706B9F080EB0E945F008B2D0E9445
:100350005F00F8018081DF91CF911F910F91FF9095
:10036000EF90DF90CF90BF907F906F905F904F9015
:100370000C945F00DF91CF911F910F91FF90EF9050
:10038000DF90CF90BF907F906F905F904F900895D7
:100390001F920F920FB60F9211246F927F928F923D
:1003A0009F92AF92BF92CF92DF92EF92FF920F9304
:1003B0001F932F933F934F935F936F937F938F93ED
:1003C0009F93AF93BF93CF93DF93EF93FF9340E05F
:1003D00050E066E085E00E94EA0041E050E066E01F
:1003E00087E00E94EA0042E050E066E088E00E9478
:1003F000EA0043E050E066E089E00E94EA0060E045
:1004000070E087E00E94250161E070E08BE40E94CB
:10041000250162E070E080E10E94250163E070E068
:1004200081E10E94250164E070E082E10E942501E3
:1004300065E070E083E10E94250166E070E081E004
:100440000E94250167E070E082E00E9425010AE633
:1004500010E092ED692E90E0792EC0E0D0E0CC243F
:10046000C394D12CC730D10564F422B3C601F8017E
:10047000008002C0880F991F0A94E2F7822B82BB8A
:100480000BC025B3C601F801008002C0880F991F78
:100490000A94E2F7822B85BB82E6A82E80E0B82E74
:1004A0007301812C912C86B3F5012081F2E0AF0E0F
:1004B000B11C90E0022E02C0959587950A94E2F750
:1004C00080FF0CC0F70180819181892B39F4D182A2
:1004D000C082B401CE010E94AA0014C086B390E08D
:1004E00002C0959587952A95E2F780FD0BC0F7012C
:1004F00080819181892B31F011821082B401CE016B
:100500000E94C500FFEF8F1A9F0A82E0E80EF11CDF
:1005100094E08916910439F6C730D10574F492B38A
:100520009601F801008002C0220F331F0A94E2F7FF
:10053000822F8095892382BB0DC095B39601F80167
:10054000008002C0220F331F0A94E2F7822F8095A9
:10055000892385BB21960E5F1F4FF8E06F0E711C3B
:10056000CD30D10509F07ECFFF91EF91DF91CF9192
:10057000BF91AF919F918F917F916F915F914F91BB
:100580003F912F911F910F91FF90EF90DF90CF90AF
:10059000BF90AF909F908F907F906F900F900FBE05
:1005A0000F901F9018958FE190E00E9458000E94D4
:1005B000A0000E948F000E944900FFCF5058BB2727
:1005C000AA270E94F6020C94D5030E94C70338F0B4
:1005D0000E94CE0320F039F49F3F19F426F40C94C6
:1005E000C4030EF4E095E7FB0C94BE03E92F0E94D0
:1005F000E60358F3BA17620773078407950720F0DC
:1006000079F4A6F50C9408040EF4E0950B2EBA2F9D
:10061000A02D0B01B90190010C01CA01A001112408
:10062000FF27591B99F0593F50F4503E68F11A16B4
:10063000F040A22F232F342F4427585FF3CF469545
:1006400037952795A795F0405395C9F77EF41F1667
:10065000BA0B620B730B840BBAF09150A1F0FF0F31
:10066000BB1F661F771F881FC2F70EC0BA0F621F1D
:10067000731F841F48F4879577956795B795F7950D
:100680009E3F08F0B0CF9395880F08F09927EE0FA2
:100690009795879508950E9452036894B1110C9420
:1006A000090408950E94EE0388F09F5798F0B92F2F
:1006B0009927B751B0F0E1F0660F771F881F991F97
:1006C0001AF0BA95C9F714C0B13091F00E9408042D
:1006D000B1E008950C940804672F782F8827B85F3D
:1006E00039F0B93FCCF3869577956795B395D9F7EF
:1006F0003EF490958095709561957F4F8F4F9F4FF9
:100700000895E89409C097FB3EF490958095709504
:1007100061957F4F8F4F9F4F9923A9F0F92F96E94D
:10072000BB279395F695879577956795B795F111C2
:10073000F8CFFAF4BB0F11F460FF1BC06F5F7F4F5F
:100740008F4F9F4F16C0882311F096E911C0772371
:1007500021F09EE8872F762F05C0662371F096E87A
:10076000862F70E060E02AF09A95660F771F881F49
:10077000DAF7880F9695879597F9089597F99F6707
:1007800080E870E060E008959FEF80EC0895002419
:100790000A941616170618060906089500240A94E6
:1007A00012161306140605060895092E0394000C6C
:1007B00011F4882352F0BB0F40F4BF2B11F460FFFB
:1007C00004C06F5F7F4F8F4F9F4F089557FD905824
:1007D000440F551F59F05F3F71F04795880F97FB05
:1007E000991F61F09F3F79F08795089512161306BF
:1007F0001406551FF2CF4695F1DF08C016161706EE
:100800001806991FF1CF8695710561050894089522
:10081000E894BB2766277727CB0197F908950E94B4
:1008200022040C94D5030E94C70338F00E94CE0323
:1008300020F0952311F00C94BE030C94C4031124F2
:100840000C9409040E94E60370F3959FC1F3950F81
:1008500050E0551F629FF001729FBB27F00DB11D44
:10086000639FAA27F00DB11DAA1F649F6627B00DD4
:10087000A11D661F829F2227B00DA11D621F739FBD
:10088000B00DA11D621F839FA00D611D221F749FCB
:100890003327A00D611D231F849F600D211D822F12
:1008A000762F6A2F11249F5750409AF0F1F0882339
:1008B0004AF0EE0FFF1FBB1F661F771F881F915066
:1008C0005040A9F79E3F510580F00C94BE030C9454
:1008D00009045F3FE4F3983ED4F3869577956795D6
:1008E000B795F795E7959F5FC1F7FE2B880F911D90
:1008F0009695879597F908954532510520F4423031
:1009000010F00C948704FB011082CB010895BB27E3
:100910004A3031F4992322F4BDE2909581959F4F9E
:100920000C949304BB27FB015527AA27880F991F16
:10093000AA1FA41710F0A41B83955051B9F7A05D0E
:10094000AA3308F0A95DA193009779F7B111B1938B
:100950001192CB010C94AC04DC01FC01672F719166
:100960007723E1F7329704C07C916D937083629195
:0C097000AE17BF07C8F30895F894FFCF3E
:10097C00030004000500060007000000020003004D
:10098C000400050006000700020003000400050037
:08099C00060007009A99193FBB
:00000001FF
